:100000000C942A000C9447000C9447000C94470071
:100010000C9447000C9447000C9447000C94470044
:100020000C9447000C9447000C9447000C94470034
:100030000C9447000C9447000C9447000C94470024
:100040000C9447000C9447000C9447000C94470014
:100050000C94470011241FBECFE5D8E0DEBFCDBF12
:1000600011E0A0E6B0E0EEEBF9E102C005900D92E0
:10007000A832B107D9F711E0A8E2B1E001C01D92A2
:10008000A033B107E1F70E94A90B0C94DD0C0C948E
:100090000000EF92FF920F931F937B018C0120E0F1
:1000A00030E040E05FE40E94490388238CF0C801FF
:1000B000B70120E030E040E05FE40E94C1010E940F
:1000C000A9039B01AC01205030404040504806C07D
:1000D000C801B7010E94A9039B01AC01B901CA0183
:1000E0001F910F91FF90EF900895A0E0B0E0EBE733
:1000F000F0E00C94A60CDC012B01FA019C919230EB
:1001000008F439C1EB018881823008F433C194309E
:1001100069F4843009F02FC111969C91119789815F
:10012000981709F428C1A0E6B0E025C1843009F48D
:1001300021C18230A9F4923009F01DC19A01AD01AC
:1001400088E0EA010990AE01E90109929E0181501F
:10015000C1F7E201898111969C918923818308C1AD
:10016000923009F407C112962D903C901397EB0141
:100170008A819B811496AD90BD90CD90DC901797AD
:10018000EC80FD800E811F819101281B390BB90184
:1001900037FF04C066277727621B730B6032710537
:1001A0000CF061C0121613066CF537014801062EDB
:1001B00004C096948794779467940A94D2F721E0C8
:1001C00030E040E050E004C0220F331F441F551FB1
:1001D0006A95D2F721503040404050402E213F21B7
:1001E00040235123211531054105510521F021E01E
:1001F00030E040E050E079018A01E628F72808293C
:1002000019293CC0232BD1F1260E371E350146019A
:10021000062E04C096948794779467940A94D2F734
:1002200021E030E040E050E004C0220F331F441FC3
:10023000551F6A95D2F721503040404050402A2146
:100240003B214C215D21211531054105510521F04E
:1002500021E030E040E050E059016A01A628B728CB
:10026000C828D9280BC0821593052CF01C01AA249C
:10027000BB24650103C0EE24FF24870111969C91E5
:10028000D20111968C91981709F445C0992339F041
:10029000A80197012A193B094C095D0906C0A6016E
:1002A00095012E193F09400B510B57FD08C01182D3
:1002B0003382228224833583468357831DC081E0A5
:1002C00081833382228288279927DC01821B930B4A
:1002D000A40BB50B84839583A683B7830DC0220F2F
:1002E000331F441F551F24833583468357838281E0
:1002F000938101979383828324813581468157813D
:10030000DA01C9010197A109B1098F5F9F4FAF4F72
:10031000BF4328F30BC0918333822282EA0CFB1C7B
:100320000C1D1D1DE482F5820683178383E0808304
:10033000248135814681578157FF1AC0C901AA27F8
:1003400097FDA095BA2F81709070A070B0705695EF
:10035000479537952795822B932BA42BB52B848318
:100360009583A683B7838281938101969383828349
:10037000DF0101C0D201CD01CDB7DEB7E2E10C94BF
:10038000C20CA0E2B0E0E7ECF1E00C94B20C69839F
:100390007A838B839C832D833E834F835887E9E048
:1003A000EE2EF12CEC0EFD1ECE010196B7010E943F
:1003B000D2048E010F5E1F4FCE010596B8010E9438
:1003C000D2048A8991E089278A8BC701B801AE01DE
:1003D000475E5F4F0E9475000E94FD03A096E6E015
:1003E0000C94CE0CA0E2B0E0E8EFF1E00C94B20C7B
:1003F00069837A838B839C832D833E834F835887C5
:10040000F9E0EF2EF12CEC0EFD1ECE010196B701A6
:100410000E94D2048E010F5E1F4FCE010596B801D7
:100420000E94D204C701B801AE01475E5F4F0E942F
:1004300075000E94FD03A096E6E00C94CE0CA0E2AD
:10044000B0E0E5E2F2E00C94A60C69837A838B833A
:100450009C832D833E834F835887CE010196BE0136
:10046000675F7F4F0E94D204CE010596BE016F5E8A
:100470007F4F0E94D2049985923088F0898982301A
:10048000C8F0943019F4823051F404C0843029F457
:10049000923081F480E690E0C6C0923049F420E0CA
:1004A0009A858A89981321E02A87CE010996BBC0D4
:1004B000823049F420E09A858A89981321E02A8BBA
:1004C000CE014196B0C02D843E844F8458886D88FB
:1004D0007E888F88988CEE24FF248701AA24BB2471
:1004E000650140E050E060E070E0E0E0F0E0C10174
:1004F00081709070892BE9F0E60CF71C081D191D1E
:100500009A01AB012A0D3B1D4C1D5D1D80E090E062
:10051000A0E0B0E0E614F7040805190520F481E036
:1005200090E0A0E0B0E0BA01A901480F591F6A1F8E
:100530007B1FAA0CBB1CCC1CDD1C97FE08C081E0F5
:1005400090E0A0E0B0E0A82AB92ACA2ADB2A3196B6
:10055000E032F10549F0660C771C881C991C569412
:10056000479437942794C3CFFA85EA892B893C892D
:100570008B859C85280F391F2E5F3F4F17C0CA01FE
:1005800081709070892B61F016950795F794E79428
:1005900080E090E0A0E0B0E8E82AF92A0A2B1B2BC3
:1005A00076956795579547952F5F3F4F77FDE7CF36
:1005B0000CC0440F551F661F771F17FD4160EE0CDE
:1005C000FF1C001F111F21503040403090E05907A0
:1005D00090E0690790E4790760F32B8F3C8FDB0193
:1005E000CA018F779070A070B07080349105A1051A
:1005F000B10561F447FD0AC0E114F10401051105DC
:1006000029F0405C5F4F6F4F7F4F40781A8EFE1786
:1006100011F081E08A8F4D8F5E8F6F8F78A383E01A
:10062000898FCE0149960E94FD03A096E2E10C94C9
:10063000C20CA8E1B0E0EFE1F3E00C94B20C6983E6
:100640007A838B839C832D833E834F83588789E0F5
:10065000E82EF12CEC0EFD1ECE010196B7010E9492
:10066000D2048E010F5E1F4FCE010596B8010E9485
:10067000D2048985823040F08989823028F0C70110
:10068000B8010E944A0501C08FEF6896E6E00C941D
:10069000CE0CA8E1B0E0EFE4F3E00C94B20C698377
:1006A0007A838B839C832D833E834F83588789E095
:1006B000E82EF12CEC0EFD1ECE010196B7010E9432
:1006C000D2048E010F5E1F4FCE010596B8010E9425
:1006D000D2048985823040F08989823028F0C701B0
:1006E000B8010E944A0501C08FEF6896E6E00C94BD
:1006F000CE0CA8E1B0E0EFE7F3E00C94B20C698314
:100700007A838B839C832D833E834F83588789E034
:10071000E82EF12CEC0EFD1ECE010196B7010E94D1
:10072000D2048E010F5E1F4FCE010596B8010E94C4
:10073000D2048985823040F08989823028F0C7014F
:10074000B8010E944A0501C081E06896E6E00C9479
:10075000CE0CACE0B0E0EFEAF3E00C94B60C6983A9
:100760007A838B839C83CE010196BE016B5F7F4FA2
:100770000E94D2048D81823061F1823050F1843048
:1007800021F48E81882351F12EC02F81388537FDC9
:1007900020C06E812F3131051CF06623F9F023C093
:1007A0008EE190E0821B930B29853A854B855C8511
:1007B00004C056954795379527958A95D2F76623B5
:1007C000B1F050954095309521953F4F4F4F5F4F79
:1007D0000EC020E030E040E050E009C02FEF3FEFD6
:1007E0004FEF5FE704C020E030E040E050E8B9019F
:1007F000CA012C96E2E00C94D20CDF92EF92FF92A9
:100800000F931F93FC01E480F58006811781D1804E
:100810008081823048F480E090E0A0E1B0E0E82AF6
:10082000F92A0A2B1B2BA5C0843009F49FC0823003
:1008300021F4EE24FF24870105C0E114F104010531
:10084000110519F4E0E0F0E096C0628173819FEF3A
:10085000623879070CF05BC022E83FEF261B370BAC
:100860002A3131052CF020E030E040E050E02AC091
:10087000B801A701022E04C0769567955795479554
:100880000A94D2F781E090E0A0E0B0E004C0880FC5
:10089000991FAA1FBB1F2A95D2F70197A109B10979
:1008A0008E219F21A023B1230097A105B10521F03E
:1008B00081E090E0A0E0B0E09A01AB01282B392B59
:1008C0004A2B5B2BDA01C9018F779070A070B07052
:1008D00080349105A105B10539F427FF09C0205CDA
:1008E0003F4F4F4F5F4F04C0215C3F4F4F4F5F4F13
:1008F000E0E0F0E02030A0E03A07A0E04A07A0E402
:100900005A0710F0E1E0F0E079018A0127C0603871
:10091000710564F5FB01E158FF4FD801C7018F77DE
:100920009070A070B07080349105A105B10539F4C4
:10093000E7FE0DC080E490E0A0E0B0E004C08FE3EB
:1009400090E0A0E0B0E0E80EF91E0A1F1B1F17FFA1
:1009500005C016950795F794E794319687E01695AC
:100960000795F794E7948A95D1F705C0EE24FF2404
:100970008701EFEFF0E06E2F679566276795902F60
:100980009F77D794DD24D7948E2F8695492F462BB9
:10099000582F5D29B701CA011F910F91FF90EF9069
:1009A000DF900895FC01DB01408151812281622F9B
:1009B0006F7770E0221F2227221F9381892F880FD3
:1009C000822B282F30E0991F9927991F11969C930D
:1009D000119721153105A9F54115510561057105DD
:1009E00011F482E037C082E89FEF13969C938E93B8
:1009F00012979A01AB0167E0220F331F441F551F66
:100A00006A95D1F783E08C930DC0220F331F441FEA
:100A1000551F12968D919C911397019713969C9355
:100A20008E931297203080E0380780E0480780E4FA
:100A3000580758F314962D933D934D935C93179755
:100A400008952F3F310579F4411551056105710570
:100A500019F484E08C93089564FF03C081E08C93C3
:100A600012C01C9210C02F57304013963C932E9307
:100A7000129783E08C9387E0440F551F661F771F02
:100A80008A95D1F7706414964D935D936D937C9322
:100A9000179708951F93DC01FB019C91923008F495
:100AA00047C08081823008F443C0943051F41196DD
:100AB0001C91843099F58181682F70E0611B710968
:100AC0003FC0843021F0923031F48230B9F181811D
:100AD000882389F12DC011961C9111978230F1F075
:100AE00081811817D9F412962D913C911397828128
:100AF00093818217930794F028173907BCF0149656
:100B00008D919D910D90BC91A02D248135814681C0
:100B10005781281739074A075B0718F4112341F05A
:100B20000AC082179307A407B50740F4112319F0F0
:100B300061E070E005C06FEF7FEF02C060E070E041
:100B4000CB011F910895DF93CF9300D0CDB7DEB7CF
:100B500089838981883018F489818A830AC08981D0
:100B6000883028F08981982F97709A8302C08981F4
:100B70008A838A810F900F90CF91DF910895DF9340
:100B8000CF93CDB7DEB728970FB6F894DEBF0FBE70
:100B9000CDBF9E838D838D819E81009741F488E730
:100BA00090E060E040E120E10E94850B1BC1809154
:100BB0002A01882309F016C181E080932A018D81E2
:100BC0009E8190932901809328011B821A821982A9
:100BD00005C120912801309129018981882F90E059
:100BE000880F991FF901E80FF91F80819181009703
:100BF00009F4F1C020912801309129018981882FC1
:100C000090E0880F991FF901E80FF91F0190F0811A
:100C1000E02D8081282F30E038872F838F819885C1
:100C200082309105D9F02F8138852330310534F495
:100C30008F8198858130910561F01EC02F813885A4
:100C40002330310581F08F8198858430910581F0C2
:100C500013C08BE390E09B838A830EC088E390E00F
:100C60009B838A8309C085E390E09B838A8304C0C9
:100C700082E390E09B838A832091280130912901AF
:100C80008981882F90E0880F991FF901E80FF91FDB
:100C90000190F081E02D81810E94A3058C838A81DF
:100CA0009B81009709F497C0209128013091290178
:100CB0008981882F90E0880F991FF901E80FF91FAB
:100CC0000190F081E02D82818823A1F4EA81FB81EB
:100CD0008081482F8C81282F30E081E090E0022E27
:100CE00002C0880F991F0A94E2F7842BEA81FB81E6
:100CF000808325C020912801309129018981882F86
:100D000090E0880F991FF901E80FF91F0190F08119
:100D1000E02D8281813099F4EA81FB818081482F26
:100D20008C81282F30E081E090E002C0880F991F6D
:100D30002A95E2F780958423EA81FB8180832091C4
:100D40002801309129018981882F90E0880F991F0F
:100D5000F901E80FF91F0190F081E02D83818130C6
:100D6000A1F4EA81FB818081482F8C81282F30E01B
:100D700081E090E0022E02C0880F991F0A94E2F7EA
:100D8000842BEA81FB81808326C020912801309149
:100D900029018981882F90E0880F991FF901E80FB8
:100DA000F91F0190F081E02D83818823A1F4EA816D
:100DB000FB818081482F8C81282F30E081E090E0FA
:100DC000022E02C0880F991F0A94E2F780958423AF
:100DD000EA81FB81808389818F5F89838981803269
:100DE00008F4F7CE28960FB6F894DEBF0FBECDBF3D
:100DF000CF91DF910895DF93CF93CDB7DEB72997D9
:100E00000FB6F894DEBF0FBECDBF8D836E834F83C8
:100E10001C821B821A8280912A01882349F488E768
:100E200090E060E044E020EF0E94850B81E08A833F
:100E30008E81803248F088E790E060E044E02AE06C
:100E40000E94850B81E08A838A81882309F0A1C0F2
:100E50008E810E94A30589838D81282F30E03987F8
:100E600028874885598542305105D9F0888599856C
:100E70008330910534F4288539852130310561F0BE
:100E80001EC0488559854330510581F08885998574
:100E90008430910581F013C08AE390E09C838B83BA
:100EA0000EC087E390E09C838B8309C084E390E0CD
:100EB0009C838B8304C081E390E09C838B838B8134
:100EC0009C81009709F465C0EB81FC818081482FEB
:100ED00050E08981282F30E081E090E002C0880F47
:100EE000991F2A95E2F79A01282339238981882FAF
:100EF00090E0A90102C0559547958A95E2F7CA018D
:100F00000097A1F4EB81FC818081482F8981282FF3
:100F100030E081E090E0022E02C0880F991F0A9411
:100F2000E2F7842BEB81FC81808333C0EB81FC8171
:100F30008081482F50E08981282F30E081E090E0C7
:100F400002C0880F991F2A95E2F79A0128233923B6
:100F50008981882F90E0A90102C0559547958A950F
:100F6000E2F7CA0181309105A1F4EB81FC81808117
:100F7000482F8981282F30E081E090E0022E02C0C6
:100F8000880F991F0A94E2F780958423EB81FC81F6
:100F9000808329960FB6F894DEBF0FBECDBFCF91E8
:100FA000DF910895DF93CF93CDB7DEB727970FB6C4
:100FB000F894DEBF0FBECDBF8C836D831B821A8277
:100FC000198280912A01882349F488E790E060E043
:100FD00040E020EF0E94850B81E089838C81843082
:100FE00048F088E790E060E045E024E10E94850B4E
:100FF00081E089838C81282F30E03F832E838E818E
:101000009F8182309105D9F02E813F8123303105B7
:1010100034F48E819F818130910561F01EC02E8154
:101020003F812330310581F08E819F81843091058D
:1010300081F013C08AE390E09B838A830EC087E32C
:1010400090E09B838A8309C084E390E09B838A833A
:1010500004C081E390E09B838A838A819B8100970F
:1010600079F08D81882329F4EA81FB818D81808349
:1010700007C08D81813021F4EA81FB818D818083DD
:1010800027960FB6F894DEBF0FBECDBFCF91DF918C
:101090000895DF93CF93CDB7DEB729970FB6F894B5
:1010A000DEBF0FBECDBF8D836E834F831C821B823C
:1010B0001A8280912A01882349F488E790E060E051
:1010C00041E020EF0E94850B81E08A838E8180328F
:1010D00048F088E790E060E041E02AE00E94850B5C
:1010E00081E08A838A81882309F069C08E810E9409
:1010F000A30589838D81282F30E03987288788854B
:10110000998582309105D9F02885398523303105BC
:1011100034F4888599858130910561F01EC0288559
:1011200039852330310581F0888599858430910592
:1011300081F013C08BE390E09C838B830EC088E327
:1011400090E09C838B8309C085E390E09C838B8334
:1011500004C082E390E09C838B838B819C81009709
:1011600071F18F818130A1F4EB81FC818081482F66
:101170008981282F30E081E090E0022E02C0880FA4
:10118000991F0A94E2F7842BEB81FC81808317C0BE
:101190008F818823A1F4EB81FC818081482F898194
:1011A000282F30E081E090E0022E02C0880F991FC6
:1011B0000A94E2F780958423EB81FC818083299651
:1011C0000FB6F894DEBF0FBECDBFCF91DF9108956B
:1011D000DF93CF93CDB7DEB729970FB6F894DEBF74
:1011E0000FBECDBF8E836F831D821C821B821A822D
:1011F00080912A01882349F488E790E060E040E08C
:1012000020EF0E94850B81E08A838F81803248F035
:1012100088E790E060E040E02AE00E94850B81E0F2
:101220008A838A81882309F07DC08F810E94A3056B
:1012300089838E81282F30E0398728874885598512
:1012400042305105D9F0888599858330910534F471
:10125000288539852130310561F01EC048855985C2
:101260004330510581F0888599858430910581F05E
:1012700013C08BE390E09D838C830EC088E390E0E5
:101280009D838C8309C085E390E09D838C8304C09B
:1012900082E390E09D838C838C819D81009709F48B
:1012A00041C0EC81FD818081482F50E08981282F49
:1012B00030E081E090E002C0880F991F2A95E2F7A4
:1012C0009A01282339238981882F90E0A90102C03F
:1012D000559547958A95E2F7CA018130910519F431
:1012E00081E08B831FC0EC81FD818081482F50E01D
:1012F0008981282F30E081E090E002C0880F991F9B
:101300002A95E2F79A01282339238981882F90E0D2
:10131000A90102C0559547958A95E2F7CA01009741
:1013200009F41B828B8129960FB6F894DEBF0FBE9D
:10133000CDBFCF91DF910895DF93CF93CDB7DEB7C7
:1013400027970FB6F894DEBF0FBECDBF8C836D8399
:101350001B821A82198280912A01882349F488E726
:1013600090E060E041E020EF0E94850B81E08983FE
:101370008C81843048F088E790E060E043E024E12D
:101380000E94850B81E089838981882309F04EC002
:101390008C81282F30E03F832E838E819F81823085
:1013A0009105D9F02E813F812330310534F48E81AF
:1013B0009F818130910561F01EC02E813F812330D5
:1013C000310581F08E819F818430910581F013C0B9
:1013D0008BE390E09B838A830EC088E390E09B833D
:1013E0008A8309C085E390E09B838A8304C082E3FB
:1013F00090E09B838A838A819B810097B9F08D81DD
:10140000813049F4EA81FB8190818D81892BEA81C9
:10141000FB8180830BC08D81882341F4EA81FB81AD
:1014200090818D81892BEA81FB81808327960FB67D
:10143000F894DEBF0FBECDBFCF91DF910895DF934B
:10144000CF9300D000D00F92CDB7DEB78B831A8236
:10145000198280912A01882349F488E790E060E0AE
:1014600040E020EF0E94850B81E089838B818032F0
:1014700048F088E790E060E042E024E10E94850BBC
:1014800081E089838981882399F58B81282F30E039
:101490003D832C838C819D8182309105D9F02C81F4
:1014A0003D812330310534F48C819D81813091055B
:1014B00061F01EC02C813D812330310581F08C818B
:1014C0009D818430910581F013C0E9E3F0E08081D3
:1014D0008A830EC0E6E3F0E080818A8309C0E3E3FB
:1014E000F0E080818A8304C0E0E3F0E080818A83B9
:1014F0008A810F900F900F900F900F90CF91DF91F6
:101500000895DF93CF93CDB7DEB728970FB6F89441
:10151000DEBF0FBECDBF8D836E831C821B821A82FD
:1015200080912A01882349F488E790E060E040E058
:1015300020EF0E94850B81E08A838E81803248F003
:1015400088E790E060E046E02AE00E94850B81E0B9
:101550008A838A81882309F0A1C08E810E94A30515
:1015600089838D81282F30E038872F834F815885DC
:1015700042305105D9F08F8198858330910534F43C
:101580002F8138852130310561F01EC04F8158858B
:101590004330510581F08F8198858430910581F029
:1015A00013C08BE390E09C838B830EC088E390E0B4
:1015B0009C838B8309C085E390E09C838B8304C06C
:1015C00082E390E09C838B838B819C81009709F45C
:1015D00065C0EB81FC818081482F50E08981282FF4
:1015E00030E081E090E002C0880F991F2A95E2F771
:1015F0009A01282339238981882F90E0A90102C00C
:10160000559547958A95E2F7CA0181309105A9F46D
:10161000EB81FC818081482F8981282F30E081E097
:1016200090E0022E02C0880F991F0A94E2F780957D
:101630008423EB81FC81808331C0EB81FC8180813C
:10164000482F50E08981282F30E081E090E002C0EF
:10165000880F991F2A95E2F79A0128233923898157
:10166000882F90E0A90102C0559547958A95E2F729
:10167000CA01009799F4EB81FC818081482F898110
:10168000282F30E081E090E0022E02C0880F991FE1
:101690000A94E2F7842BEB81FC81808328960FB6B5
:1016A000F894DEBF0FBECDBFCF91DF910895DF93D9
:1016B000CF9300D0CDB7DEB79A83898389819A8191
:1016C000009741F488E790E060E042E120E20E9468
:1016D000850B16C0E981FA8188EE93E091838083BF
:1016E000E981FA8188E790E093838283E981FA8136
:1016F00081E08483E981FA811582E981FA81168289
:101700000F900F90CF91DF910895DF93CF9300D08A
:1017100000D00F92CDB7DEB79A8389836B834C8359
:101720002D8389819A8190932C0180932B018B8149
:1017300080932D018C8180932E018D8180932F01C8
:1017400080E00F900F900F900F900F90CF91DF914E
:101750000895DF93CF93CDB7DEB76C970FB6F894AB
:10176000DEBF0FBECDBF88EE90E00E94BF0581E0D6
:1017700064E041E00E94490880E090E0AAE7B4E418
:10178000898F9A8FAB8FBC8F698D7A8D8B8D9C8D55
:1017900020E030E04AE755E40E941F02DC01CB0163
:1017A0008D8B9E8BAF8BB88F6D897E898F89988D3D
:1017B00020E030E040E85FE30E94790388232CF4C6
:1017C00081E090E09C8B8B8B3FC06D897E898F89F7
:1017D000988D20E03FEF4FE757E40E941903181659
:1017E0004CF5698D7A8D8B8D9C8D20E030E040E248
:1017F00051E40E941F02DC01CB01BC01CD010E941B
:101800004900DC01CB019C8B8B8B0FC080E991E000
:101810009A8B898B89899A890197F1F79A8B898BA1
:101820008B899C8901979C8B8B8B8B899C890097DA
:1018300069F714C06D897E898F89988D0E9449004F
:10184000DC01CB019C8B8B8B8B899C89988B8F8740
:101850008F8598890197F1F7988B8F8781E064E0F5
:1018600040E00E94490880E090E0AAE7B4E48B875A
:101870009C87AD87BE876B857C858D859E8520E0A6
:1018800030E04AE755E40E941F02DC01CB018F8360
:101890009887A987BA876F81788589859A8520E09E
:1018A00030E040E85FE30E94790388232CF481E074
:1018B00090E09E838D833FC06F81788589859A856E
:1018C00020E03FEF4FE757E40E94190318164CF54C
:1018D0006B857C858D859E8520E030E040E251E47B
:1018E0000E941F02DC01CB01BC01CD010E94490016
:1018F000DC01CB019E838D830FC080E991E09C8346
:101900008B838B819C810197F1F79C838B838D81E5
:101910009E8101979E838D838D819E81009769F7BB
:1019200026CF6F81788589859A850E944900DC01E0
:10193000CB019E838D838D819E819A83898389814A
:101940009A810197F1F79A83898311CF2F923F9261
:101950004F925F926F927F928F929F92AF92BF92BF
:10196000CF92DF92EF92FF920F931F93CF93DF936B
:10197000CDB7DEB7CA1BDB0B0FB6F894DEBF0FBEC8
:10198000CDBF09942A88398848885F846E847D8415
:101990008C849B84AA84B984C884DF80EE80FD8017
:1019A0000C811B81AA81B981CE0FD11D0FB6F8948D
:0E19B000DEBF0FBECDBFED010895F894FFCF4E
:1019BE000000000000000000010001010101010112
:1019CE0001020101010301010104010101050101EF
:1019DE0001060101010701010208010102090101CD
:1019EE00020A0101020B0101020C0101020D0101AB
:1019FE00020E0101020F0101031001010311010189
:101A0E000312010103130101031401010315010166
:101A1E000316010103170101041801010419010144
:101A2E00041A0101041B0101041C0101041D010122
:101A3E00041E0101041F010100000000000000004F
:101A4E007800000000000000000000000000000010
:101A5E000000000000000000000000000000000078
:101A6E000000000000000000000000000000000068
:081A7E00000000000000000060
:00000001FF
